{
  "contractName": "food_history",
  "abi": [
    {
      "inputs": [
        {
          "internalType": "string",
          "name": "_food",
          "type": "string"
        },
        {
          "internalType": "string",
          "name": "_name",
          "type": "string"
        },
        {
          "internalType": "string",
          "name": "_type",
          "type": "string"
        }
      ],
      "name": "regist_history",
      "outputs": [],
      "stateMutability": "nonpayable",
      "type": "function"
    },
    {
      "inputs": [
        {
          "internalType": "string",
          "name": "_food",
          "type": "string"
        }
      ],
      "name": "add_history",
      "outputs": [],
      "stateMutability": "nonpayable",
      "type": "function"
    },
    {
      "inputs": [
        {
          "internalType": "string",
          "name": "_food",
          "type": "string"
        }
      ],
      "name": "view_history",
      "outputs": [
        {
          "internalType": "string",
          "name": "",
          "type": "string"
        },
        {
          "internalType": "string",
          "name": "",
          "type": "string"
        },
        {
          "internalType": "address[]",
          "name": "",
          "type": "address[]"
        }
      ],
      "stateMutability": "view",
      "type": "function",
      "constant": true
    }
  ],
  "bytecode": "0x608060405234801561001057600080fd5b50610d0d806100206000396000f3fe608060405234801561001057600080fd5b50600436106100415760003560e01c806309088198146100465780635242ffd414610062578063d6a1abd314610094575b600080fd5b610060600480360381019061005b9190610656565b6100b0565b005b61007c60048036038101906100779190610656565b610202565b60405161008b9392919061080e565b60405180910390f35b6100ae60048036038101906100a9919061085a565b610417565b005b600073ffffffffffffffffffffffffffffffffffffffff166000826040516100d8919061093d565b90815260200160405180910390206002016000815481106100fc576100fb610954565b5b9060005260206000200160009054906101000a900473ffffffffffffffffffffffffffffffffffffffff1673ffffffffffffffffffffffffffffffffffffffff160361017d576040517f08c379a0000000000000000000000000000000000000000000000000000000008152600401610174906109cf565b60405180910390fd5b60008160405161018d919061093d565b9081526020016040518091039020600201339080600181540180825580915050600190039060005260206000200160009091909190916101000a81548173ffffffffffffffffffffffffffffffffffffffff021916908373ffffffffffffffffffffffffffffffffffffffff16021790555050565b6060806060600084604051610217919061093d565b9081526020016040518091039020600001600085604051610238919061093d565b9081526020016040518091039020600101600086604051610259919061093d565b908152602001604051809103902060020182805461027690610a1e565b80601f01602080910402602001604051908101604052809291908181526020018280546102a290610a1e565b80156102ef5780601f106102c4576101008083540402835291602001916102ef565b820191906000526020600020905b8154815290600101906020018083116102d257829003601f168201915b5050505050925081805461030290610a1e565b80601f016020809104026020016040519081016040528092919081815260200182805461032e90610a1e565b801561037b5780601f106103505761010080835404028352916020019161037b565b820191906000526020600020905b81548152906001019060200180831161035e57829003601f168201915b505050505091508080548060200260200160405190810160405280929190818152602001828054801561040357602002820191906000526020600020905b8160009054906101000a900473ffffffffffffffffffffffffffffffffffffffff1673ffffffffffffffffffffffffffffffffffffffff16815260200190600101908083116103b9575b505050505090509250925092509193909250565b81600084604051610428919061093d565b908152602001604051809103902060000190816104459190610c05565b5080600084604051610457919061093d565b908152602001604051809103902060010190816104749190610c05565b50600083604051610485919061093d565b9081526020016040518091039020600201339080600181540180825580915050600190039060005260206000200160009091909190916101000a81548173ffffffffffffffffffffffffffffffffffffffff021916908373ffffffffffffffffffffffffffffffffffffffff160217905550505050565b6000604051905090565b600080fd5b600080fd5b600080fd5b600080fd5b6000601f19601f8301169050919050565b7f4e487b7100000000000000000000000000000000000000000000000000000000600052604160045260246000fd5b6105638261051a565b810181811067ffffffffffffffff821117156105825761058161052b565b5b80604052505050565b60006105956104fc565b90506105a1828261055a565b919050565b600067ffffffffffffffff8211156105c1576105c061052b565b5b6105ca8261051a565b9050602081019050919050565b82818337600083830152505050565b60006105f96105f4846105a6565b61058b565b90508281526020810184848401111561061557610614610515565b5b6106208482856105d7565b509392505050565b600082601f83011261063d5761063c610510565b5b813561064d8482602086016105e6565b91505092915050565b60006020828403121561066c5761066b610506565b5b600082013567ffffffffffffffff81111561068a5761068961050b565b5b61069684828501610628565b91505092915050565b600081519050919050565b600082825260208201905092915050565b60005b838110156106d95780820151818401526020810190506106be565b60008484015250505050565b60006106f08261069f565b6106fa81856106aa565b935061070a8185602086016106bb565b6107138161051a565b840191505092915050565b600081519050919050565b600082825260208201905092915050565b6000819050602082019050919050565b600073ffffffffffffffffffffffffffffffffffffffff82169050919050565b60006107758261074a565b9050919050565b6107858161076a565b82525050565b6000610797838361077c565b60208301905092915050565b6000602082019050919050565b60006107bb8261071e565b6107c58185610729565b93506107d08361073a565b8060005b838110156108015781516107e8888261078b565b97506107f3836107a3565b9250506001810190506107d4565b5085935050505092915050565b6000606082019050818103600083015261082881866106e5565b9050818103602083015261083c81856106e5565b9050818103604083015261085081846107b0565b9050949350505050565b60008060006060848603121561087357610872610506565b5b600084013567ffffffffffffffff8111156108915761089061050b565b5b61089d86828701610628565b935050602084013567ffffffffffffffff8111156108be576108bd61050b565b5b6108ca86828701610628565b925050604084013567ffffffffffffffff8111156108eb576108ea61050b565b5b6108f786828701610628565b9150509250925092565b600081905092915050565b60006109178261069f565b6109218185610901565b93506109318185602086016106bb565b80840191505092915050565b6000610949828461090c565b915081905092915050565b7f4e487b7100000000000000000000000000000000000000000000000000000000600052603260045260246000fd5b7f4572726f72000000000000000000000000000000000000000000000000000000600082015250565b60006109b96005836106aa565b91506109c482610983565b602082019050919050565b600060208201905081810360008301526109e8816109ac565b9050919050565b7f4e487b7100000000000000000000000000000000000000000000000000000000600052602260045260246000fd5b60006002820490506001821680610a3657607f821691505b602082108103610a4957610a486109ef565b5b50919050565b60008190508160005260206000209050919050565b60006020601f8301049050919050565b600082821b905092915050565b600060088302610ab17fffffffffffffffffffffffffffffffffffffffffffffffffffffffffffffffff82610a74565b610abb8683610a74565b95508019841693508086168417925050509392505050565b6000819050919050565b6000819050919050565b6000610b02610afd610af884610ad3565b610add565b610ad3565b9050919050565b6000819050919050565b610b1c83610ae7565b610b30610b2882610b09565b848454610a81565b825550505050565b600090565b610b45610b38565b610b50818484610b13565b505050565b5b81811015610b7457610b69600082610b3d565b600181019050610b56565b5050565b601f821115610bb957610b8a81610a4f565b610b9384610a64565b81016020851015610ba2578190505b610bb6610bae85610a64565b830182610b55565b50505b505050565b600082821c905092915050565b6000610bdc60001984600802610bbe565b1980831691505092915050565b6000610bf58383610bcb565b9150826002028217905092915050565b610c0e8261069f565b67ffffffffffffffff811115610c2757610c2661052b565b5b610c318254610a1e565b610c3c828285610b78565b600060209050601f831160018114610c6f5760008415610c5d578287015190505b610c678582610be9565b865550610ccf565b601f198416610c7d86610a4f565b60005b82811015610ca557848901518255600182019150602085019450602081019050610c80565b86831015610cc25784890151610cbe601f891682610bcb565b8355505b6001600288020188555050505b50505050505056fea2646970667358221220e5ae7d15ffe1404dd1e603643521e311164672b9f5ae542c2992f91b1c048f7864736f6c63430008130033",
  "immutableReferences": {},
  "source": "// SPDX-License-Identifier: MIT\r\npragma solidity >=0.4.0 <0.8.20;\r\n\r\ncontract food_history{\r\n\r\n    struct food_info {\r\n        string food_name;\r\n        string food_type;\r\n        address[] food_address;\r\n    }\r\n\r\n    mapping (string => food_info) internal foods;\r\n\r\n    function regist_history(string memory _food, string memory _name, string memory _type) public {\r\n        foods[_food].food_name = _name;\r\n        foods[_food].food_type = _type;\r\n        foods[_food].food_address.push(msg.sender);\r\n    }\r\n\r\n    function add_history(string memory _food) public {\r\n        require(foods[_food].food_address[0] != address(0), \"Error\");\r\n        foods[_food].food_address.push(msg.sender);\r\n    }\r\n\r\n    function view_history(string memory _food) public view returns (string memory, string memory, address[] memory){\r\n        return (foods[_food].food_name, foods[_food].food_type, foods[_food].food_address);\r\n    }\r\n}\r\n",
  "sourcePath": "C:\\Users\\moons\\Documents\\GitHub\\blockchain\\food_history\\contracts\\food_history.sol",
  "compiler": {
    "name": "solc",
    "version": "0.8.19+commit.7dd6d404.Emscripten.clang"
  },
  "schemaVersion": "3.4.13",
  "updatedAt": "2023-04-17T12:42:51.593Z",
  "networkType": "ethereum",
  "devdoc": {
    "kind": "dev",
    "methods": {},
    "version": 1
  },
  "userdoc": {
    "kind": "user",
    "methods": {},
    "version": 1
  }
}