{
  "contractName": "user",
  "abi": [
    {
      "inputs": [
        {
          "internalType": "string",
          "name": "",
          "type": "string"
        }
      ],
      "name": "users",
      "outputs": [
        {
          "internalType": "string",
          "name": "password",
          "type": "string"
        },
        {
          "internalType": "string",
          "name": "name",
          "type": "string"
        }
      ],
      "stateMutability": "view",
      "type": "function",
      "constant": true
    },
    {
      "inputs": [
        {
          "internalType": "string",
          "name": "_id",
          "type": "string"
        },
        {
          "internalType": "string",
          "name": "_pass",
          "type": "string"
        },
        {
          "internalType": "string",
          "name": "_name",
          "type": "string"
        }
      ],
      "name": "add_user",
      "outputs": [],
      "stateMutability": "nonpayable",
      "type": "function"
    },
    {
      "inputs": [
        {
          "internalType": "string",
          "name": "_id",
          "type": "string"
        }
      ],
      "name": "view_user",
      "outputs": [
        {
          "internalType": "string",
          "name": "",
          "type": "string"
        },
        {
          "internalType": "string",
          "name": "",
          "type": "string"
        }
      ],
      "stateMutability": "view",
      "type": "function",
      "constant": true
    }
  ],
  "bytecode": "0x608060405234801561001057600080fd5b50610a4c806100206000396000f3fe608060405234801561001057600080fd5b50600436106100415760003560e01c8063689e1c0314610046578063a2238ee414610077578063dda3911114610093575b600080fd5b610060600480360381019061005b9190610535565b6100c4565b60405161006e9291906105fd565b60405180910390f35b610091600480360381019061008c9190610634565b61020e565b005b6100ad60048036038101906100a89190610535565b610271565b6040516100bb9291906105fd565b60405180910390f35b6000818051602081018201805184825260208301602085012081835280955050505050506000915090508060000180546100fd9061070a565b80601f01602080910402602001604051908101604052809291908181526020018280546101299061070a565b80156101765780601f1061014b57610100808354040283529160200191610176565b820191906000526020600020905b81548152906001019060200180831161015957829003601f168201915b50505050509080600101805461018b9061070a565b80601f01602080910402602001604051908101604052809291908181526020018280546101b79061070a565b80156102045780601f106101d957610100808354040283529160200191610204565b820191906000526020600020905b8154815290600101906020018083116101e757829003601f168201915b5050505050905082565b8160008460405161021f9190610777565b9081526020016040518091039020600001908161023c9190610944565b508060008460405161024e9190610777565b9081526020016040518091039020600101908161026b9190610944565b50505050565b606080600080846040516102859190610777565b908152602001604051809103902060000180546102a19061070a565b80601f01602080910402602001604051908101604052809291908181526020018280546102cd9061070a565b801561031a5780601f106102ef5761010080835404028352916020019161031a565b820191906000526020600020905b8154815290600101906020018083116102fd57829003601f168201915b50505050509050600080856040516103329190610777565b9081526020016040518091039020600101805461034e9061070a565b80601f016020809104026020016040519081016040528092919081815260200182805461037a9061070a565b80156103c75780601f1061039c576101008083540402835291602001916103c7565b820191906000526020600020905b8154815290600101906020018083116103aa57829003601f168201915b505050505090508181935093505050915091565b6000604051905090565b600080fd5b600080fd5b600080fd5b600080fd5b6000601f19601f8301169050919050565b7f4e487b7100000000000000000000000000000000000000000000000000000000600052604160045260246000fd5b610442826103f9565b810181811067ffffffffffffffff821117156104615761046061040a565b5b80604052505050565b60006104746103db565b90506104808282610439565b919050565b600067ffffffffffffffff8211156104a05761049f61040a565b5b6104a9826103f9565b9050602081019050919050565b82818337600083830152505050565b60006104d86104d384610485565b61046a565b9050828152602081018484840111156104f4576104f36103f4565b5b6104ff8482856104b6565b509392505050565b600082601f83011261051c5761051b6103ef565b5b813561052c8482602086016104c5565b91505092915050565b60006020828403121561054b5761054a6103e5565b5b600082013567ffffffffffffffff811115610569576105686103ea565b5b61057584828501610507565b91505092915050565b600081519050919050565b600082825260208201905092915050565b60005b838110156105b857808201518184015260208101905061059d565b60008484015250505050565b60006105cf8261057e565b6105d98185610589565b93506105e981856020860161059a565b6105f2816103f9565b840191505092915050565b6000604082019050818103600083015261061781856105c4565b9050818103602083015261062b81846105c4565b90509392505050565b60008060006060848603121561064d5761064c6103e5565b5b600084013567ffffffffffffffff81111561066b5761066a6103ea565b5b61067786828701610507565b935050602084013567ffffffffffffffff811115610698576106976103ea565b5b6106a486828701610507565b925050604084013567ffffffffffffffff8111156106c5576106c46103ea565b5b6106d186828701610507565b9150509250925092565b7f4e487b7100000000000000000000000000000000000000000000000000000000600052602260045260246000fd5b6000600282049050600182168061072257607f821691505b602082108103610735576107346106db565b5b50919050565b600081905092915050565b60006107518261057e565b61075b818561073b565b935061076b81856020860161059a565b80840191505092915050565b60006107838284610746565b915081905092915050565b60008190508160005260206000209050919050565b60006020601f8301049050919050565b600082821b905092915050565b6000600883026107f07fffffffffffffffffffffffffffffffffffffffffffffffffffffffffffffffff826107b3565b6107fa86836107b3565b95508019841693508086168417925050509392505050565b6000819050919050565b6000819050919050565b600061084161083c61083784610812565b61081c565b610812565b9050919050565b6000819050919050565b61085b83610826565b61086f61086782610848565b8484546107c0565b825550505050565b600090565b610884610877565b61088f818484610852565b505050565b5b818110156108b3576108a860008261087c565b600181019050610895565b5050565b601f8211156108f8576108c98161078e565b6108d2846107a3565b810160208510156108e1578190505b6108f56108ed856107a3565b830182610894565b50505b505050565b600082821c905092915050565b600061091b600019846008026108fd565b1980831691505092915050565b6000610934838361090a565b9150826002028217905092915050565b61094d8261057e565b67ffffffffffffffff8111156109665761096561040a565b5b610970825461070a565b61097b8282856108b7565b600060209050601f8311600181146109ae576000841561099c578287015190505b6109a68582610928565b865550610a0e565b601f1984166109bc8661078e565b60005b828110156109e4578489015182556001820191506020850194506020810190506109bf565b86831015610a0157848901516109fd601f89168261090a565b8355505b6001600288020188555050505b50505050505056fea2646970667358221220bb2c15df59f2fcb0397ee6a665171682de42b5389dcb96342dcc60af581be11464736f6c63430008130033",
  "immutableReferences": {},
  "source": "// SPDX-License-Identifier: MIT\r\npragma solidity ^0.8.0;\r\n\r\ncontract user {\r\n\r\n    //   \r\n    struct user_info {\r\n        string password;\r\n        string name;\r\n    }\r\n\r\n    // mapping  \r\n    mapping (string => user_info) public users;\r\n\r\n    //    \r\n    function add_user(string memory _id, string memory _pass, string memory _name) public {\r\n        users[_id].password = _pass;\r\n        users[_id].name = _name;\r\n    }\r\n\r\n    //   \r\n    function view_user(string memory _id) view public returns (string memory, string memory){\r\n        string memory password = users[_id].password;\r\n        string memory name = users[_id].name;\r\n        return (password, name);\r\n    }\r\n\r\n\r\n}",
  "sourcePath": "C:\\Users\\CTnote91\\Documents\\GitHub\\blockchain\\contract_server_2\\contracts\\user.sol",
  "compiler": {
    "name": "solc",
    "version": "0.8.19+commit.7dd6d404.Emscripten.clang"
  },
  "schemaVersion": "3.4.13",
  "updatedAt": "2023-03-21T12:15:26.092Z",
  "networkType": "ethereum",
  "devdoc": {
    "kind": "dev",
    "methods": {},
    "version": 1
  },
  "userdoc": {
    "kind": "user",
    "methods": {},
    "version": 1
  }
}