{
  "contractName": "Survey",
  "abi": [
    {
      "inputs": [
        {
          "internalType": "string",
          "name": "_user",
          "type": "string"
        }
      ],
      "name": "check_survey",
      "outputs": [
        {
          "internalType": "bool",
          "name": "",
          "type": "bool"
        }
      ],
      "stateMutability": "view",
      "type": "function",
      "constant": true
    },
    {
      "inputs": [
        {
          "internalType": "string",
          "name": "_user",
          "type": "string"
        },
        {
          "internalType": "string",
          "name": "_gender",
          "type": "string"
        },
        {
          "internalType": "uint8",
          "name": "_age",
          "type": "uint8"
        },
        {
          "internalType": "string",
          "name": "_coffee",
          "type": "string"
        }
      ],
      "name": "add_survey",
      "outputs": [],
      "stateMutability": "nonpayable",
      "type": "function"
    },
    {
      "inputs": [],
      "name": "count_list",
      "outputs": [
        {
          "internalType": "uint256",
          "name": "",
          "type": "uint256"
        }
      ],
      "stateMutability": "view",
      "type": "function",
      "constant": true
    },
    {
      "inputs": [
        {
          "internalType": "uint256",
          "name": "_index",
          "type": "uint256"
        }
      ],
      "name": "get_survey",
      "outputs": [
        {
          "internalType": "string",
          "name": "",
          "type": "string"
        },
        {
          "internalType": "string",
          "name": "",
          "type": "string"
        },
        {
          "internalType": "uint8",
          "name": "",
          "type": "uint8"
        },
        {
          "internalType": "string",
          "name": "",
          "type": "string"
        }
      ],
      "stateMutability": "view",
      "type": "function",
      "constant": true
    }
  ],
  "bytecode": "0x608060405234801561001057600080fd5b50610ceb806100206000396000f3fe608060405234801561001057600080fd5b506004361061004c5760003560e01c8063348be9221461005157806384bb2bce1461006d578063883944f7146100a0578063b6ceb0bc146100d0575b600080fd5b61006b6004803603810190610066919061069d565b6100ee565b005b6100876004803603810190610082919061078e565b610240565b6040516100979493929190610852565b60405180910390f35b6100ba60048036038101906100b591906108ac565b6104ab565b6040516100c79190610910565b60405180910390f35b6100d86104f8565b6040516100e5919061093a565b60405180910390f35b826000856040516100ff9190610991565b9081526020016040518091039020600001908161011c9190610bb4565b508160008560405161012e9190610991565b908152602001604051809103902060010160006101000a81548160ff021916908360ff160217905550806000856040516101689190610991565b908152602001604051809103902060020190816101859190610bb4565b50600160405180608001604052808681526020018581526020018460ff16815260200183815250908060018154018082558091505060019003906000526020600020906004020160009091909190915060008201518160000190816101ea9190610bb4565b5060208201518160010190816102009190610bb4565b5060408201518160020160006101000a81548160ff021916908360ff16021790555060608201518160030190816102379190610bb4565b50505050505050565b6060806000606060006001868154811061025d5761025c610c86565b5b90600052602060002090600402016000018054610279906109d7565b80601f01602080910402602001604051908101604052809291908181526020018280546102a5906109d7565b80156102f25780601f106102c7576101008083540402835291602001916102f2565b820191906000526020600020905b8154815290600101906020018083116102d557829003601f168201915b5050505050905060006001878154811061030f5761030e610c86565b5b9060005260206000209060040201600101805461032b906109d7565b80601f0160208091040260200160405190810160405280929190818152602001828054610357906109d7565b80156103a45780601f10610379576101008083540402835291602001916103a4565b820191906000526020600020905b81548152906001019060200180831161038757829003601f168201915b505050505090506000600188815481106103c1576103c0610c86565b5b906000526020600020906004020160020160009054906101000a900460ff1690506000600189815481106103f8576103f7610c86565b5b90600052602060002090600402016003018054610414906109d7565b80601f0160208091040260200160405190810160405280929190818152602001828054610440906109d7565b801561048d5780601f106104625761010080835404028352916020019161048d565b820191906000526020600020905b81548152906001019060200180831161047057829003601f168201915b50505050509050838383839750975097509750505050509193509193565b6000806000836040516104be9190610991565b908152602001604051809103902060010160009054906101000a900460ff1660ff16036104ee57600090506104f3565b600190505b919050565b60008060018054905090508091505090565b6000604051905090565b600080fd5b600080fd5b600080fd5b600080fd5b6000601f19601f8301169050919050565b7f4e487b7100000000000000000000000000000000000000000000000000000000600052604160045260246000fd5b61057182610528565b810181811067ffffffffffffffff821117156105905761058f610539565b5b80604052505050565b60006105a361050a565b90506105af8282610568565b919050565b600067ffffffffffffffff8211156105cf576105ce610539565b5b6105d882610528565b9050602081019050919050565b82818337600083830152505050565b6000610607610602846105b4565b610599565b90508281526020810184848401111561062357610622610523565b5b61062e8482856105e5565b509392505050565b600082601f83011261064b5761064a61051e565b5b813561065b8482602086016105f4565b91505092915050565b600060ff82169050919050565b61067a81610664565b811461068557600080fd5b50565b60008135905061069781610671565b92915050565b600080600080608085870312156106b7576106b6610514565b5b600085013567ffffffffffffffff8111156106d5576106d4610519565b5b6106e187828801610636565b945050602085013567ffffffffffffffff81111561070257610701610519565b5b61070e87828801610636565b935050604061071f87828801610688565b925050606085013567ffffffffffffffff8111156107405761073f610519565b5b61074c87828801610636565b91505092959194509250565b6000819050919050565b61076b81610758565b811461077657600080fd5b50565b60008135905061078881610762565b92915050565b6000602082840312156107a4576107a3610514565b5b60006107b284828501610779565b91505092915050565b600081519050919050565b600082825260208201905092915050565b60005b838110156107f55780820151818401526020810190506107da565b83811115610804576000848401525b50505050565b6000610815826107bb565b61081f81856107c6565b935061082f8185602086016107d7565b61083881610528565b840191505092915050565b61084c81610664565b82525050565b6000608082019050818103600083015261086c818761080a565b90508181036020830152610880818661080a565b905061088f6040830185610843565b81810360608301526108a1818461080a565b905095945050505050565b6000602082840312156108c2576108c1610514565b5b600082013567ffffffffffffffff8111156108e0576108df610519565b5b6108ec84828501610636565b91505092915050565b60008115159050919050565b61090a816108f5565b82525050565b60006020820190506109256000830184610901565b92915050565b61093481610758565b82525050565b600060208201905061094f600083018461092b565b92915050565b600081905092915050565b600061096b826107bb565b6109758185610955565b93506109858185602086016107d7565b80840191505092915050565b600061099d8284610960565b915081905092915050565b7f4e487b7100000000000000000000000000000000000000000000000000000000600052602260045260246000fd5b600060028204905060018216806109ef57607f821691505b602082108103610a0257610a016109a8565b5b50919050565b60008190508160005260206000209050919050565b60006020601f8301049050919050565b600082821b905092915050565b600060088302610a6a7fffffffffffffffffffffffffffffffffffffffffffffffffffffffffffffffff82610a2d565b610a748683610a2d565b95508019841693508086168417925050509392505050565b6000819050919050565b6000610ab1610aac610aa784610758565b610a8c565b610758565b9050919050565b6000819050919050565b610acb83610a96565b610adf610ad782610ab8565b848454610a3a565b825550505050565b600090565b610af4610ae7565b610aff818484610ac2565b505050565b5b81811015610b2357610b18600082610aec565b600181019050610b05565b5050565b601f821115610b6857610b3981610a08565b610b4284610a1d565b81016020851015610b51578190505b610b65610b5d85610a1d565b830182610b04565b50505b505050565b600082821c905092915050565b6000610b8b60001984600802610b6d565b1980831691505092915050565b6000610ba48383610b7a565b9150826002028217905092915050565b610bbd826107bb565b67ffffffffffffffff811115610bd657610bd5610539565b5b610be082546109d7565b610beb828285610b27565b600060209050601f831160018114610c1e5760008415610c0c578287015190505b610c168582610b98565b865550610c7e565b601f198416610c2c86610a08565b60005b82811015610c5457848901518255600182019150602085019450602081019050610c2f565b86831015610c715784890151610c6d601f891682610b7a565b8355505b6001600288020188555050505b505050505050565b7f4e487b7100000000000000000000000000000000000000000000000000000000600052603260045260246000fdfea2646970667358221220ef92041ca84792edb1a26ef0a49485e6f9ab78650e94f6c8eefb61ef6e724fec64736f6c634300080f0033",
  "immutableReferences": {},
  "source": "// SPDX-License-Identifier: MIT\r\npragma solidity =0.8.15;\r\n\r\ncontract Survey {\r\n    //   \r\n    // , , , , \r\n    // mapping      . \r\n    // mapping key \"()\"   , , \r\n    //     \r\n\r\n    //  \r\n    // , ,  3    . \r\n    struct survey_info {\r\n        string gender;\r\n        uint8 age;\r\n        string coffee;\r\n    }\r\n    // mapping   \r\n    //      mapping\r\n    mapping (string => survey_info) internal survey;\r\n\r\n    //    \r\n    //   (  )\r\n    struct surveys {\r\n        string name;\r\n        string gender;\r\n        uint8 age;\r\n        string coffee;\r\n    }\r\n\r\n    //   ()\r\n    //         \r\n    surveys[] internal survey_list;\r\n\r\n    //    \r\n    function check_survey(string memory _user) public view returns (bool){\r\n        //     ?\r\n        // mapping         \r\n        if (survey[_user].age == 0){    \r\n            //     0  \r\n            // 0     \r\n            return false;\r\n        }else{\r\n            return true;\r\n        }\r\n    } \r\n\r\n    //    \r\n    function add_survey(string memory _user, string memory _gender, uint8 _age, string memory _coffee) public {\r\n        //   mapping   \r\n        survey[_user].gender = _gender;\r\n        survey[_user].age = _age;\r\n        survey[_user].coffee = _coffee;\r\n        //     \r\n        survey_list.push(surveys(_user, _gender, _age, _coffee));\r\n    }\r\n\r\n    //    \r\n    function count_list() public view returns (uint256){\r\n        uint256 result = survey_list.length;\r\n        return result;\r\n    }\r\n\r\n    //    \r\n    function get_survey(uint256 _index) public view returns (string memory, string memory, uint8, string memory){\r\n        string memory name = survey_list[_index].name;\r\n        string memory gender = survey_list[_index].gender;\r\n        uint8 age = survey_list[_index].age;\r\n        string memory coffee = survey_list[_index].coffee;\r\n\r\n        return (name, gender, age, coffee);\r\n    }\r\n\r\n}",
  "sourcePath": "F:\\blockchain\\survey\\contracts\\Survey.sol",
  "compiler": {
    "name": "solc",
    "version": "0.8.15+commit.e14f2714.Emscripten.clang"
  },
  "schemaVersion": "3.4.8",
  "updatedAt": "2023-03-29T11:35:11.893Z",
  "networkType": "ethereum",
  "devdoc": {
    "kind": "dev",
    "methods": {},
    "version": 1
  },
  "userdoc": {
    "kind": "user",
    "methods": {},
    "version": 1
  }
}