{
  "contractName": "used_deal",
  "abi": [
    {
      "inputs": [
        {
          "internalType": "uint256",
          "name": "",
          "type": "uint256"
        }
      ],
      "name": "deals",
      "outputs": [
        {
          "internalType": "string",
          "name": "title",
          "type": "string"
        },
        {
          "internalType": "string",
          "name": "content",
          "type": "string"
        },
        {
          "internalType": "uint16",
          "name": "price",
          "type": "uint16"
        },
        {
          "internalType": "address",
          "name": "writer",
          "type": "address"
        },
        {
          "internalType": "address",
          "name": "trader",
          "type": "address"
        },
        {
          "internalType": "uint8",
          "name": "state",
          "type": "uint8"
        }
      ],
      "stateMutability": "view",
      "type": "function",
      "constant": true
    },
    {
      "inputs": [
        {
          "internalType": "uint256",
          "name": "_num",
          "type": "uint256"
        },
        {
          "internalType": "string",
          "name": "_title",
          "type": "string"
        },
        {
          "internalType": "string",
          "name": "_content",
          "type": "string"
        },
        {
          "internalType": "uint16",
          "name": "_price",
          "type": "uint16"
        },
        {
          "internalType": "uint8",
          "name": "_state",
          "type": "uint8"
        }
      ],
      "name": "add_deal",
      "outputs": [],
      "stateMutability": "nonpayable",
      "type": "function"
    },
    {
      "inputs": [
        {
          "internalType": "uint256",
          "name": "_num",
          "type": "uint256"
        },
        {
          "internalType": "uint8",
          "name": "_state",
          "type": "uint8"
        }
      ],
      "name": "add_trading",
      "outputs": [],
      "stateMutability": "nonpayable",
      "type": "function"
    },
    {
      "inputs": [
        {
          "internalType": "uint256",
          "name": "_num",
          "type": "uint256"
        },
        {
          "internalType": "uint8",
          "name": "_state",
          "type": "uint8"
        }
      ],
      "name": "change_trade",
      "outputs": [],
      "stateMutability": "nonpayable",
      "type": "function"
    },
    {
      "inputs": [],
      "name": "view_deal_num",
      "outputs": [
        {
          "internalType": "uint256",
          "name": "",
          "type": "uint256"
        }
      ],
      "stateMutability": "view",
      "type": "function",
      "constant": true
    },
    {
      "inputs": [
        {
          "internalType": "uint256",
          "name": "_num",
          "type": "uint256"
        }
      ],
      "name": "view_deal",
      "outputs": [
        {
          "internalType": "string",
          "name": "",
          "type": "string"
        },
        {
          "internalType": "string",
          "name": "",
          "type": "string"
        },
        {
          "internalType": "uint16",
          "name": "",
          "type": "uint16"
        },
        {
          "internalType": "address",
          "name": "",
          "type": "address"
        },
        {
          "internalType": "address",
          "name": "",
          "type": "address"
        },
        {
          "internalType": "uint8",
          "name": "",
          "type": "uint8"
        }
      ],
      "stateMutability": "view",
      "type": "function",
      "constant": true
    }
  ],
  "bytecode": "0x60806040526001805534801561001457600080fd5b50611403806100246000396000f3fe608060405234801561001057600080fd5b50600436106100625760003560e01c806303988f841461006757806310f89d3f1461009c5780636939a4c6146100b8578063c016c67a146100ed578063ea25262214610109578063fd5f50ee14610125575b600080fd5b610081600480360381019061007c9190610a78565b610143565b60405161009396959493929190610baf565b60405180910390f35b6100b660048036038101906100b19190610dab565b6102ea565b005b6100d260048036038101906100cd9190610a78565b610469565b6040516100e496959493929190610baf565b60405180910390f35b61010760048036038101906101029190610e5e565b61067c565b005b610123600480360381019061011e9190610e5e565b61084a565b005b61012d610a24565b60405161013a9190610ead565b60405180910390f35b600060205280600052604060002060009150905080600001805461016690610ef7565b80601f016020809104026020016040519081016040528092919081815260200182805461019290610ef7565b80156101df5780601f106101b4576101008083540402835291602001916101df565b820191906000526020600020905b8154815290600101906020018083116101c257829003601f168201915b5050505050908060010180546101f490610ef7565b80601f016020809104026020016040519081016040528092919081815260200182805461022090610ef7565b801561026d5780601f106102425761010080835404028352916020019161026d565b820191906000526020600020905b81548152906001019060200180831161025057829003601f168201915b5050505050908060020160009054906101000a900461ffff16908060020160029054906101000a900473ffffffffffffffffffffffffffffffffffffffff16908060030160009054906101000a900473ffffffffffffffffffffffffffffffffffffffff16908060030160149054906101000a900460ff16905086565b600080600087815260200190815260200160002060030160149054906101000a900460ff1660ff1614610352576040517f08c379a000000000000000000000000000000000000000000000000000000000815260040161034990610f74565b60405180910390fd5b8360008087815260200190815260200160002060000190816103749190611140565b508260008087815260200190815260200160002060010190816103979190611140565b508160008087815260200190815260200160002060020160006101000a81548161ffff021916908361ffff1602179055503360008087815260200190815260200160002060020160026101000a81548173ffffffffffffffffffffffffffffffffffffffff021916908373ffffffffffffffffffffffffffffffffffffffff1602179055508060008087815260200190815260200160002060030160146101000a81548160ff021916908360ff1602179055506001600081548092919061045d90611241565b91905055505050505050565b6060806000806000806000808881526020019081526020016000206000016000808981526020019081526020016000206001016000808a815260200190815260200160002060020160009054906101000a900461ffff166000808b815260200190815260200160002060020160029054906101000a900473ffffffffffffffffffffffffffffffffffffffff166000808c815260200190815260200160002060030160009054906101000a900473ffffffffffffffffffffffffffffffffffffffff166000808d815260200190815260200160002060030160149054906101000a900460ff1685805461055b90610ef7565b80601f016020809104026020016040519081016040528092919081815260200182805461058790610ef7565b80156105d45780601f106105a9576101008083540402835291602001916105d4565b820191906000526020600020905b8154815290600101906020018083116105b757829003601f168201915b505050505095508480546105e790610ef7565b80601f016020809104026020016040519081016040528092919081815260200182805461061390610ef7565b80156106605780601f1061063557610100808354040283529160200191610660565b820191906000526020600020905b81548152906001019060200180831161064357829003601f168201915b5050505050945095509550955095509550955091939550919395565b600073ffffffffffffffffffffffffffffffffffffffff1660008084815260200190815260200160002060020160029054906101000a900473ffffffffffffffffffffffffffffffffffffffff1673ffffffffffffffffffffffffffffffffffffffff1603610720576040517f08c379a0000000000000000000000000000000000000000000000000000000008152600401610717906112d5565b60405180910390fd5b600073ffffffffffffffffffffffffffffffffffffffff1660008084815260200190815260200160002060030160009054906101000a900473ffffffffffffffffffffffffffffffffffffffff1673ffffffffffffffffffffffffffffffffffffffff16146107c4576040517f08c379a00000000000000000000000000000000000000000000000000000000081526004016107bb90611341565b60405180910390fd5b3360008084815260200190815260200160002060030160006101000a81548173ffffffffffffffffffffffffffffffffffffffff021916908373ffffffffffffffffffffffffffffffffffffffff1602179055508060008084815260200190815260200160002060030160146101000a81548160ff021916908360ff1602179055505050565b600073ffffffffffffffffffffffffffffffffffffffff1660008084815260200190815260200160002060020160029054906101000a900473ffffffffffffffffffffffffffffffffffffffff1673ffffffffffffffffffffffffffffffffffffffff16036108ee576040517f08c379a00000000000000000000000000000000000000000000000000000000081526004016108e5906112d5565b60405180910390fd5b3373ffffffffffffffffffffffffffffffffffffffff1660008084815260200190815260200160002060020160029054906101000a900473ffffffffffffffffffffffffffffffffffffffff1673ffffffffffffffffffffffffffffffffffffffff1614610991576040517f08c379a0000000000000000000000000000000000000000000000000000000008152600401610988906113ad565b60405180910390fd5b8060008084815260200190815260200160002060030160146101000a81548160ff021916908360ff16021790555060018160ff1603610a2057600080600084815260200190815260200160002060030160006101000a81548173ffffffffffffffffffffffffffffffffffffffff021916908373ffffffffffffffffffffffffffffffffffffffff1602179055505b5050565b6000600154905090565b6000604051905090565b600080fd5b600080fd5b6000819050919050565b610a5581610a42565b8114610a6057600080fd5b50565b600081359050610a7281610a4c565b92915050565b600060208284031215610a8e57610a8d610a38565b5b6000610a9c84828501610a63565b91505092915050565b600081519050919050565b600082825260208201905092915050565b60005b83811015610adf578082015181840152602081019050610ac4565b60008484015250505050565b6000601f19601f8301169050919050565b6000610b0782610aa5565b610b118185610ab0565b9350610b21818560208601610ac1565b610b2a81610aeb565b840191505092915050565b600061ffff82169050919050565b610b4c81610b35565b82525050565b600073ffffffffffffffffffffffffffffffffffffffff82169050919050565b6000610b7d82610b52565b9050919050565b610b8d81610b72565b82525050565b600060ff82169050919050565b610ba981610b93565b82525050565b600060c0820190508181036000830152610bc98189610afc565b90508181036020830152610bdd8188610afc565b9050610bec6040830187610b43565b610bf96060830186610b84565b610c066080830185610b84565b610c1360a0830184610ba0565b979650505050505050565b600080fd5b600080fd5b7f4e487b7100000000000000000000000000000000000000000000000000000000600052604160045260246000fd5b610c6082610aeb565b810181811067ffffffffffffffff82111715610c7f57610c7e610c28565b5b80604052505050565b6000610c92610a2e565b9050610c9e8282610c57565b919050565b600067ffffffffffffffff821115610cbe57610cbd610c28565b5b610cc782610aeb565b9050602081019050919050565b82818337600083830152505050565b6000610cf6610cf184610ca3565b610c88565b905082815260208101848484011115610d1257610d11610c23565b5b610d1d848285610cd4565b509392505050565b600082601f830112610d3a57610d39610c1e565b5b8135610d4a848260208601610ce3565b91505092915050565b610d5c81610b35565b8114610d6757600080fd5b50565b600081359050610d7981610d53565b92915050565b610d8881610b93565b8114610d9357600080fd5b50565b600081359050610da581610d7f565b92915050565b600080600080600060a08688031215610dc757610dc6610a38565b5b6000610dd588828901610a63565b955050602086013567ffffffffffffffff811115610df657610df5610a3d565b5b610e0288828901610d25565b945050604086013567ffffffffffffffff811115610e2357610e22610a3d565b5b610e2f88828901610d25565b9350506060610e4088828901610d6a565b9250506080610e5188828901610d96565b9150509295509295909350565b60008060408385031215610e7557610e74610a38565b5b6000610e8385828601610a63565b9250506020610e9485828601610d96565b9150509250929050565b610ea781610a42565b82525050565b6000602082019050610ec26000830184610e9e565b92915050565b7f4e487b7100000000000000000000000000000000000000000000000000000000600052602260045260246000fd5b60006002820490506001821680610f0f57607f821691505b602082108103610f2257610f21610ec8565b5b50919050565b7f6465616c20657869737400000000000000000000000000000000000000000000600082015250565b6000610f5e600a83610ab0565b9150610f6982610f28565b602082019050919050565b60006020820190508181036000830152610f8d81610f51565b9050919050565b60008190508160005260206000209050919050565b60006020601f8301049050919050565b600082821b905092915050565b600060088302610ff67fffffffffffffffffffffffffffffffffffffffffffffffffffffffffffffffff82610fb9565b6110008683610fb9565b95508019841693508086168417925050509392505050565b6000819050919050565b600061103d61103861103384610a42565b611018565b610a42565b9050919050565b6000819050919050565b61105783611022565b61106b61106382611044565b848454610fc6565b825550505050565b600090565b611080611073565b61108b81848461104e565b505050565b5b818110156110af576110a4600082611078565b600181019050611091565b5050565b601f8211156110f4576110c581610f94565b6110ce84610fa9565b810160208510156110dd578190505b6110f16110e985610fa9565b830182611090565b50505b505050565b600082821c905092915050565b6000611117600019846008026110f9565b1980831691505092915050565b60006111308383611106565b9150826002028217905092915050565b61114982610aa5565b67ffffffffffffffff81111561116257611161610c28565b5b61116c8254610ef7565b6111778282856110b3565b600060209050601f8311600181146111aa5760008415611198578287015190505b6111a28582611124565b86555061120a565b601f1984166111b886610f94565b60005b828110156111e0578489015182556001820191506020850194506020810190506111bb565b868310156111fd57848901516111f9601f891682611106565b8355505b6001600288020188555050505b505050505050565b7f4e487b7100000000000000000000000000000000000000000000000000000000600052601160045260246000fd5b600061124c82610a42565b91507fffffffffffffffffffffffffffffffffffffffffffffffffffffffffffffffff820361127e5761127d611212565b5b600182019050919050565b7f6465616c206e6f74206578697374000000000000000000000000000000000000600082015250565b60006112bf600e83610ab0565b91506112ca82611289565b602082019050919050565b600060208201905081810360008301526112ee816112b2565b9050919050565b7f7472616465722065786973740000000000000000000000000000000000000000600082015250565b600061132b600c83610ab0565b9150611336826112f5565b602082019050919050565b6000602082019050818103600083015261135a8161131e565b9050919050565b7f777269746572206e6f74206d6174636800000000000000000000000000000000600082015250565b6000611397601083610ab0565b91506113a282611361565b602082019050919050565b600060208201905081810360008301526113c68161138a565b905091905056fea26469706673582212204eaec6acf06466c50cb49ac8ffcaf03496fc37efaf56823da3f3446b435c38ad64736f6c63430008130033",
  "immutableReferences": {},
  "source": "// SPDX-License-Identifier: MIT\r\npragma solidity >=0.4.0 <0.8.20;\r\n\r\ncontract used_deal {\r\n    struct deal_info{\r\n        string title;\r\n        string content;\r\n        uint16 price;\r\n        address writer;\r\n        address trader;\r\n        uint8 state;\r\n    }\r\n\r\n    mapping (uint => deal_info) public deals;\r\n\r\n    uint deal_num = 1;\r\n    \r\n\r\n    function add_deal(uint _num, string memory _title, string memory _content, uint16 _price, uint8 _state) public{\r\n        require(deals[_num].state == 0, \"deal exist\");\r\n        deals[_num].title = _title;\r\n        deals[_num].content = _content;\r\n        deals[_num].price = _price;\r\n        deals[_num].writer = msg.sender;\r\n        deals[_num].state = _state;\r\n        deal_num++;\r\n    }\r\n\r\n    function add_trading(uint _num, uint8 _state) public {\r\n        require(deals[_num].writer != address(0), \"deal not exist\");\r\n        require(deals[_num].trader == address(0), \"trader exist\");\r\n        deals[_num].trader = msg.sender;\r\n        deals[_num].state = _state;\r\n    }\r\n\r\n    function change_trade(uint _num, uint8 _state) public {\r\n        require(deals[_num].writer != address(0), \"deal not exist\");\r\n        require(deals[_num].writer == msg.sender, \"writer not match\");\r\n        deals[_num].state = _state;\r\n        if (_state == 1){\r\n            deals[_num].trader = address(0);\r\n        }\r\n    }\r\n\r\n    function view_deal_num() public view returns (uint){\r\n        return (deal_num);\r\n    }\r\n\r\n    function view_deal(uint _num) public view returns (string memory, string memory, uint16, address, address, uint8){\r\n        return (deals[_num].title, deals[_num].content, deals[_num].price, deals[_num].writer, deals[_num].trader, deals[_num].state);\r\n    }\r\n\r\n}",
  "sourcePath": "C:\\Users\\moons\\Documents\\GitHub\\blockchain\\used_deal\\contracts\\used_deal.sol",
  "compiler": {
    "name": "solc",
    "version": "0.8.19+commit.7dd6d404.Emscripten.clang"
  },
  "schemaVersion": "3.4.13",
  "updatedAt": "2023-04-20T14:43:43.737Z",
  "networkType": "ethereum",
  "devdoc": {
    "kind": "dev",
    "methods": {},
    "version": 1
  },
  "userdoc": {
    "kind": "user",
    "methods": {},
    "version": 1
  }
}