{
  "contractName": "used_deal",
  "abi": [
    {
      "inputs": [
        {
          "internalType": "uint256",
          "name": "",
          "type": "uint256"
        }
      ],
      "name": "deals",
      "outputs": [
        {
          "internalType": "string",
          "name": "title",
          "type": "string"
        },
        {
          "internalType": "string",
          "name": "content",
          "type": "string"
        },
        {
          "internalType": "uint256",
          "name": "price",
          "type": "uint256"
        },
        {
          "internalType": "address",
          "name": "writer",
          "type": "address"
        },
        {
          "internalType": "address",
          "name": "trader",
          "type": "address"
        },
        {
          "internalType": "uint8",
          "name": "state",
          "type": "uint8"
        }
      ],
      "stateMutability": "view",
      "type": "function",
      "constant": true
    },
    {
      "inputs": [
        {
          "internalType": "uint256",
          "name": "_num",
          "type": "uint256"
        },
        {
          "internalType": "string",
          "name": "_title",
          "type": "string"
        },
        {
          "internalType": "string",
          "name": "_content",
          "type": "string"
        },
        {
          "internalType": "uint256",
          "name": "_price",
          "type": "uint256"
        },
        {
          "internalType": "uint8",
          "name": "_state",
          "type": "uint8"
        }
      ],
      "name": "add_deal",
      "outputs": [],
      "stateMutability": "nonpayable",
      "type": "function"
    },
    {
      "inputs": [
        {
          "internalType": "uint256",
          "name": "_num",
          "type": "uint256"
        },
        {
          "internalType": "uint8",
          "name": "_state",
          "type": "uint8"
        }
      ],
      "name": "add_trading",
      "outputs": [],
      "stateMutability": "nonpayable",
      "type": "function"
    },
    {
      "inputs": [
        {
          "internalType": "uint256",
          "name": "_num",
          "type": "uint256"
        },
        {
          "internalType": "uint8",
          "name": "_state",
          "type": "uint8"
        }
      ],
      "name": "change_trade",
      "outputs": [],
      "stateMutability": "nonpayable",
      "type": "function"
    },
    {
      "inputs": [],
      "name": "view_deal_num",
      "outputs": [
        {
          "internalType": "uint256",
          "name": "",
          "type": "uint256"
        }
      ],
      "stateMutability": "view",
      "type": "function",
      "constant": true
    },
    {
      "inputs": [
        {
          "internalType": "uint256",
          "name": "_num",
          "type": "uint256"
        }
      ],
      "name": "view_deal",
      "outputs": [
        {
          "internalType": "string",
          "name": "",
          "type": "string"
        },
        {
          "internalType": "string",
          "name": "",
          "type": "string"
        },
        {
          "internalType": "uint256",
          "name": "",
          "type": "uint256"
        },
        {
          "internalType": "address",
          "name": "",
          "type": "address"
        },
        {
          "internalType": "address",
          "name": "",
          "type": "address"
        },
        {
          "internalType": "uint8",
          "name": "",
          "type": "uint8"
        }
      ],
      "stateMutability": "view",
      "type": "function",
      "constant": true
    }
  ],
  "bytecode": "0x60806040526001805534801561001457600080fd5b506112e4806100246000396000f3fe608060405234801561001057600080fd5b50600436106100625760003560e01c806303988f84146100675780636939a4c61461009c5780636fc5560a146100d1578063c016c67a146100ed578063ea25262214610109578063fd5f50ee14610125575b600080fd5b610081600480360381019061007c91906109a2565b610143565b60405161009396959493929190610acb565b60405180910390f35b6100b660048036038101906100b191906109a2565b6102dc565b6040516100c896959493929190610acb565b60405180910390f35b6100eb60048036038101906100e69190610c9b565b6104e1565b005b61010760048036038101906101029190610d4e565b61064a565b005b610123600480360381019061011e9190610d4e565b610818565b005b61012d61094e565b60405161013a9190610d8e565b60405180910390f35b600060205280600052604060002060009150905080600001805461016690610dd8565b80601f016020809104026020016040519081016040528092919081815260200182805461019290610dd8565b80156101df5780601f106101b4576101008083540402835291602001916101df565b820191906000526020600020905b8154815290600101906020018083116101c257829003601f168201915b5050505050908060010180546101f490610dd8565b80601f016020809104026020016040519081016040528092919081815260200182805461022090610dd8565b801561026d5780601f106102425761010080835404028352916020019161026d565b820191906000526020600020905b81548152906001019060200180831161025057829003601f168201915b5050505050908060020154908060030160009054906101000a900473ffffffffffffffffffffffffffffffffffffffff16908060040160009054906101000a900473ffffffffffffffffffffffffffffffffffffffff16908060040160149054906101000a900460ff16905086565b6060806000806000806000808881526020019081526020016000206000016000808981526020019081526020016000206001016000808a8152602001908152602001600020600201546000808b815260200190815260200160002060030160009054906101000a900473ffffffffffffffffffffffffffffffffffffffff166000808c815260200190815260200160002060040160009054906101000a900473ffffffffffffffffffffffffffffffffffffffff166000808d815260200190815260200160002060040160149054906101000a900460ff168580546103c090610dd8565b80601f01602080910402602001604051908101604052809291908181526020018280546103ec90610dd8565b80156104395780601f1061040e57610100808354040283529160200191610439565b820191906000526020600020905b81548152906001019060200180831161041c57829003601f168201915b5050505050955084805461044c90610dd8565b80601f016020809104026020016040519081016040528092919081815260200182805461047890610dd8565b80156104c55780601f1061049a576101008083540402835291602001916104c5565b820191906000526020600020905b8154815290600101906020018083116104a857829003601f168201915b5050505050945095509550955095509550955091939550919395565b600080600087815260200190815260200160002060040160149054906101000a900460ff1660ff1614610549576040517f08c379a000000000000000000000000000000000000000000000000000000000815260040161054090610e55565b60405180910390fd5b83600080878152602001908152602001600020600001908161056b9190611021565b5082600080878152602001908152602001600020600101908161058e9190611021565b5081600080878152602001908152602001600020600201819055503360008087815260200190815260200160002060030160006101000a81548173ffffffffffffffffffffffffffffffffffffffff021916908373ffffffffffffffffffffffffffffffffffffffff1602179055508060008087815260200190815260200160002060040160146101000a81548160ff021916908360ff1602179055506001600081548092919061063e90611122565b91905055505050505050565b600073ffffffffffffffffffffffffffffffffffffffff1660008084815260200190815260200160002060030160009054906101000a900473ffffffffffffffffffffffffffffffffffffffff1673ffffffffffffffffffffffffffffffffffffffff16036106ee576040517f08c379a00000000000000000000000000000000000000000000000000000000081526004016106e5906111b6565b60405180910390fd5b600073ffffffffffffffffffffffffffffffffffffffff1660008084815260200190815260200160002060040160009054906101000a900473ffffffffffffffffffffffffffffffffffffffff1673ffffffffffffffffffffffffffffffffffffffff1614610792576040517f08c379a000000000000000000000000000000000000000000000000000000000815260040161078990611222565b60405180910390fd5b3360008084815260200190815260200160002060040160006101000a81548173ffffffffffffffffffffffffffffffffffffffff021916908373ffffffffffffffffffffffffffffffffffffffff1602179055508060008084815260200190815260200160002060040160146101000a81548160ff021916908360ff1602179055505050565b3373ffffffffffffffffffffffffffffffffffffffff1660008084815260200190815260200160002060030160009054906101000a900473ffffffffffffffffffffffffffffffffffffffff1673ffffffffffffffffffffffffffffffffffffffff16146108bb576040517f08c379a00000000000000000000000000000000000000000000000000000000081526004016108b29061128e565b60405180910390fd5b8060008084815260200190815260200160002060040160146101000a81548160ff021916908360ff16021790555060018160ff160361094a57600080600084815260200190815260200160002060040160006101000a81548173ffffffffffffffffffffffffffffffffffffffff021916908373ffffffffffffffffffffffffffffffffffffffff1602179055505b5050565b6000600154905090565b6000604051905090565b600080fd5b600080fd5b6000819050919050565b61097f8161096c565b811461098a57600080fd5b50565b60008135905061099c81610976565b92915050565b6000602082840312156109b8576109b7610962565b5b60006109c68482850161098d565b91505092915050565b600081519050919050565b600082825260208201905092915050565b60005b83811015610a095780820151818401526020810190506109ee565b60008484015250505050565b6000601f19601f8301169050919050565b6000610a31826109cf565b610a3b81856109da565b9350610a4b8185602086016109eb565b610a5481610a15565b840191505092915050565b610a688161096c565b82525050565b600073ffffffffffffffffffffffffffffffffffffffff82169050919050565b6000610a9982610a6e565b9050919050565b610aa981610a8e565b82525050565b600060ff82169050919050565b610ac581610aaf565b82525050565b600060c0820190508181036000830152610ae58189610a26565b90508181036020830152610af98188610a26565b9050610b086040830187610a5f565b610b156060830186610aa0565b610b226080830185610aa0565b610b2f60a0830184610abc565b979650505050505050565b600080fd5b600080fd5b7f4e487b7100000000000000000000000000000000000000000000000000000000600052604160045260246000fd5b610b7c82610a15565b810181811067ffffffffffffffff82111715610b9b57610b9a610b44565b5b80604052505050565b6000610bae610958565b9050610bba8282610b73565b919050565b600067ffffffffffffffff821115610bda57610bd9610b44565b5b610be382610a15565b9050602081019050919050565b82818337600083830152505050565b6000610c12610c0d84610bbf565b610ba4565b905082815260208101848484011115610c2e57610c2d610b3f565b5b610c39848285610bf0565b509392505050565b600082601f830112610c5657610c55610b3a565b5b8135610c66848260208601610bff565b91505092915050565b610c7881610aaf565b8114610c8357600080fd5b50565b600081359050610c9581610c6f565b92915050565b600080600080600060a08688031215610cb757610cb6610962565b5b6000610cc58882890161098d565b955050602086013567ffffffffffffffff811115610ce657610ce5610967565b5b610cf288828901610c41565b945050604086013567ffffffffffffffff811115610d1357610d12610967565b5b610d1f88828901610c41565b9350506060610d308882890161098d565b9250506080610d4188828901610c86565b9150509295509295909350565b60008060408385031215610d6557610d64610962565b5b6000610d738582860161098d565b9250506020610d8485828601610c86565b9150509250929050565b6000602082019050610da36000830184610a5f565b92915050565b7f4e487b7100000000000000000000000000000000000000000000000000000000600052602260045260246000fd5b60006002820490506001821680610df057607f821691505b602082108103610e0357610e02610da9565b5b50919050565b7f6465616c20657869737400000000000000000000000000000000000000000000600082015250565b6000610e3f600a836109da565b9150610e4a82610e09565b602082019050919050565b60006020820190508181036000830152610e6e81610e32565b9050919050565b60008190508160005260206000209050919050565b60006020601f8301049050919050565b600082821b905092915050565b600060088302610ed77fffffffffffffffffffffffffffffffffffffffffffffffffffffffffffffffff82610e9a565b610ee18683610e9a565b95508019841693508086168417925050509392505050565b6000819050919050565b6000610f1e610f19610f148461096c565b610ef9565b61096c565b9050919050565b6000819050919050565b610f3883610f03565b610f4c610f4482610f25565b848454610ea7565b825550505050565b600090565b610f61610f54565b610f6c818484610f2f565b505050565b5b81811015610f9057610f85600082610f59565b600181019050610f72565b5050565b601f821115610fd557610fa681610e75565b610faf84610e8a565b81016020851015610fbe578190505b610fd2610fca85610e8a565b830182610f71565b50505b505050565b600082821c905092915050565b6000610ff860001984600802610fda565b1980831691505092915050565b60006110118383610fe7565b9150826002028217905092915050565b61102a826109cf565b67ffffffffffffffff81111561104357611042610b44565b5b61104d8254610dd8565b611058828285610f94565b600060209050601f83116001811461108b5760008415611079578287015190505b6110838582611005565b8655506110eb565b601f19841661109986610e75565b60005b828110156110c15784890151825560018201915060208501945060208101905061109c565b868310156110de57848901516110da601f891682610fe7565b8355505b6001600288020188555050505b505050505050565b7f4e487b7100000000000000000000000000000000000000000000000000000000600052601160045260246000fd5b600061112d8261096c565b91507fffffffffffffffffffffffffffffffffffffffffffffffffffffffffffffffff820361115f5761115e6110f3565b5b600182019050919050565b7f6465616c206e6f74206578697374000000000000000000000000000000000000600082015250565b60006111a0600e836109da565b91506111ab8261116a565b602082019050919050565b600060208201905081810360008301526111cf81611193565b9050919050565b7f7472616465722065786973740000000000000000000000000000000000000000600082015250565b600061120c600c836109da565b9150611217826111d6565b602082019050919050565b6000602082019050818103600083015261123b816111ff565b9050919050565b7f777269746572206e6f74206d6174636800000000000000000000000000000000600082015250565b60006112786010836109da565b915061128382611242565b602082019050919050565b600060208201905081810360008301526112a78161126b565b905091905056fea26469706673582212206aedd97eb8824d8e2e6b8db4628eb1b49af10dd19aa35a3a32281042c0b461b864736f6c63430008130033",
  "immutableReferences": {},
  "source": "// SPDX-License-Identifier: MIT\npragma solidity >=0.4.0 <0.8.20;\n\ncontract used_deal {\n    struct deal_info{\n        string title;\n        string content;\n        uint price;\n        address writer;\n        address trader;\n        uint8 state;\n    }\n\n    mapping (uint => deal_info) public deals;\n\n    uint deal_num = 1;\n    \n\n    function add_deal(uint _num, string memory _title, string memory _content, uint _price, uint8 _state) public{\n        require(deals[_num].state == 0, \"deal exist\");\n        deals[_num].title = _title;\n        deals[_num].content = _content;\n        deals[_num].price = _price;\n        deals[_num].writer = msg.sender;\n        deals[_num].state = _state;\n        deal_num++;\n    }\n\n    function add_trading(uint _num, uint8 _state) public {\n        require(deals[_num].writer != address(0), \"deal not exist\");\n        require(deals[_num].trader == address(0), \"trader exist\");\n        deals[_num].trader = msg.sender;\n        deals[_num].state = _state;\n    }\n\n    function change_trade(uint _num, uint8 _state) public {\n        require(deals[_num].writer == msg.sender, \"writer not match\");\n        deals[_num].state = _state;\n        if (_state == 1){\n            deals[_num].trader = address(0);\n        }\n    }\n\n    function view_deal_num() public view returns (uint){\n        return (deal_num);\n    }\n\n    function view_deal(uint _num) public view returns (string memory, string memory, uint, address, address, uint8){\n        return (deals[_num].title, deals[_num].content, deals[_num].price, deals[_num].writer, deals[_num].trader, deals[_num].state);\n    }\n\n}",
  "sourcePath": "/Users/munbyeongseon/Documents/GitHub/blockchain/used_deal/contracts/used_deal.sol",
  "compiler": {
    "name": "solc",
    "version": "0.8.19+commit.7dd6d404.Emscripten.clang"
  },
  "schemaVersion": "3.4.13",
  "updatedAt": "2023-04-22T07:46:14.022Z",
  "networkType": "ethereum",
  "devdoc": {
    "kind": "dev",
    "methods": {},
    "version": 1
  },
  "userdoc": {
    "kind": "user",
    "methods": {},
    "version": 1
  }
}