{
  "contractName": "Survey",
  "abi": [
    {
      "inputs": [
        {
          "internalType": "string",
          "name": "_user",
          "type": "string"
        }
      ],
      "name": "check_survey",
      "outputs": [
        {
          "internalType": "bool",
          "name": "",
          "type": "bool"
        }
      ],
      "stateMutability": "view",
      "type": "function",
      "constant": true
    },
    {
      "inputs": [
        {
          "internalType": "string",
          "name": "_user",
          "type": "string"
        },
        {
          "internalType": "string",
          "name": "_gender",
          "type": "string"
        },
        {
          "internalType": "uint8",
          "name": "_age",
          "type": "uint8"
        },
        {
          "internalType": "string",
          "name": "_coffee",
          "type": "string"
        }
      ],
      "name": "add_survey",
      "outputs": [],
      "stateMutability": "nonpayable",
      "type": "function"
    },
    {
      "inputs": [],
      "name": "count_list",
      "outputs": [
        {
          "internalType": "uint256",
          "name": "",
          "type": "uint256"
        }
      ],
      "stateMutability": "view",
      "type": "function",
      "constant": true
    },
    {
      "inputs": [
        {
          "internalType": "uint256",
          "name": "_index",
          "type": "uint256"
        }
      ],
      "name": "get_survey",
      "outputs": [
        {
          "internalType": "string",
          "name": "",
          "type": "string"
        },
        {
          "internalType": "string",
          "name": "",
          "type": "string"
        },
        {
          "internalType": "uint8",
          "name": "",
          "type": "uint8"
        },
        {
          "internalType": "string",
          "name": "",
          "type": "string"
        }
      ],
      "stateMutability": "view",
      "type": "function",
      "constant": true
    }
  ],
  "bytecode": "0x608060405234801561001057600080fd5b50610ce2806100206000396000f3fe608060405234801561001057600080fd5b506004361061004c5760003560e01c8063348be9221461005157806384bb2bce1461006d578063883944f7146100a0578063b6ceb0bc146100d0575b600080fd5b61006b6004803603810190610066919061069d565b6100ee565b005b6100876004803603810190610082919061078e565b610240565b6040516100979493929190610849565b60405180910390f35b6100ba60048036038101906100b591906108a3565b6104ab565b6040516100c79190610907565b60405180910390f35b6100d86104f8565b6040516100e59190610931565b60405180910390f35b826000856040516100ff9190610988565b9081526020016040518091039020600001908161011c9190610bab565b508160008560405161012e9190610988565b908152602001604051809103902060010160006101000a81548160ff021916908360ff160217905550806000856040516101689190610988565b908152602001604051809103902060020190816101859190610bab565b50600160405180608001604052808681526020018581526020018460ff16815260200183815250908060018154018082558091505060019003906000526020600020906004020160009091909190915060008201518160000190816101ea9190610bab565b5060208201518160010190816102009190610bab565b5060408201518160020160006101000a81548160ff021916908360ff16021790555060608201518160030190816102379190610bab565b50505050505050565b6060806000606060006001868154811061025d5761025c610c7d565b5b90600052602060002090600402016000018054610279906109ce565b80601f01602080910402602001604051908101604052809291908181526020018280546102a5906109ce565b80156102f25780601f106102c7576101008083540402835291602001916102f2565b820191906000526020600020905b8154815290600101906020018083116102d557829003601f168201915b5050505050905060006001878154811061030f5761030e610c7d565b5b9060005260206000209060040201600101805461032b906109ce565b80601f0160208091040260200160405190810160405280929190818152602001828054610357906109ce565b80156103a45780601f10610379576101008083540402835291602001916103a4565b820191906000526020600020905b81548152906001019060200180831161038757829003601f168201915b505050505090506000600188815481106103c1576103c0610c7d565b5b906000526020600020906004020160020160009054906101000a900460ff1690506000600189815481106103f8576103f7610c7d565b5b90600052602060002090600402016003018054610414906109ce565b80601f0160208091040260200160405190810160405280929190818152602001828054610440906109ce565b801561048d5780601f106104625761010080835404028352916020019161048d565b820191906000526020600020905b81548152906001019060200180831161047057829003601f168201915b50505050509050838383839750975097509750505050509193509193565b6000806000836040516104be9190610988565b908152602001604051809103902060010160009054906101000a900460ff1660ff16036104ee57600090506104f3565b600190505b919050565b60008060018054905090508091505090565b6000604051905090565b600080fd5b600080fd5b600080fd5b600080fd5b6000601f19601f8301169050919050565b7f4e487b7100000000000000000000000000000000000000000000000000000000600052604160045260246000fd5b61057182610528565b810181811067ffffffffffffffff821117156105905761058f610539565b5b80604052505050565b60006105a361050a565b90506105af8282610568565b919050565b600067ffffffffffffffff8211156105cf576105ce610539565b5b6105d882610528565b9050602081019050919050565b82818337600083830152505050565b6000610607610602846105b4565b610599565b90508281526020810184848401111561062357610622610523565b5b61062e8482856105e5565b509392505050565b600082601f83011261064b5761064a61051e565b5b813561065b8482602086016105f4565b91505092915050565b600060ff82169050919050565b61067a81610664565b811461068557600080fd5b50565b60008135905061069781610671565b92915050565b600080600080608085870312156106b7576106b6610514565b5b600085013567ffffffffffffffff8111156106d5576106d4610519565b5b6106e187828801610636565b945050602085013567ffffffffffffffff81111561070257610701610519565b5b61070e87828801610636565b935050604061071f87828801610688565b925050606085013567ffffffffffffffff8111156107405761073f610519565b5b61074c87828801610636565b91505092959194509250565b6000819050919050565b61076b81610758565b811461077657600080fd5b50565b60008135905061078881610762565b92915050565b6000602082840312156107a4576107a3610514565b5b60006107b284828501610779565b91505092915050565b600081519050919050565b600082825260208201905092915050565b60005b838110156107f55780820151818401526020810190506107da565b60008484015250505050565b600061080c826107bb565b61081681856107c6565b93506108268185602086016107d7565b61082f81610528565b840191505092915050565b61084381610664565b82525050565b600060808201905081810360008301526108638187610801565b905081810360208301526108778186610801565b9050610886604083018561083a565b81810360608301526108988184610801565b905095945050505050565b6000602082840312156108b9576108b8610514565b5b600082013567ffffffffffffffff8111156108d7576108d6610519565b5b6108e384828501610636565b91505092915050565b60008115159050919050565b610901816108ec565b82525050565b600060208201905061091c60008301846108f8565b92915050565b61092b81610758565b82525050565b60006020820190506109466000830184610922565b92915050565b600081905092915050565b6000610962826107bb565b61096c818561094c565b935061097c8185602086016107d7565b80840191505092915050565b60006109948284610957565b915081905092915050565b7f4e487b7100000000000000000000000000000000000000000000000000000000600052602260045260246000fd5b600060028204905060018216806109e657607f821691505b6020821081036109f9576109f861099f565b5b50919050565b60008190508160005260206000209050919050565b60006020601f8301049050919050565b600082821b905092915050565b600060088302610a617fffffffffffffffffffffffffffffffffffffffffffffffffffffffffffffffff82610a24565b610a6b8683610a24565b95508019841693508086168417925050509392505050565b6000819050919050565b6000610aa8610aa3610a9e84610758565b610a83565b610758565b9050919050565b6000819050919050565b610ac283610a8d565b610ad6610ace82610aaf565b848454610a31565b825550505050565b600090565b610aeb610ade565b610af6818484610ab9565b505050565b5b81811015610b1a57610b0f600082610ae3565b600181019050610afc565b5050565b601f821115610b5f57610b30816109ff565b610b3984610a14565b81016020851015610b48578190505b610b5c610b5485610a14565b830182610afb565b50505b505050565b600082821c905092915050565b6000610b8260001984600802610b64565b1980831691505092915050565b6000610b9b8383610b71565b9150826002028217905092915050565b610bb4826107bb565b67ffffffffffffffff811115610bcd57610bcc610539565b5b610bd782546109ce565b610be2828285610b1e565b600060209050601f831160018114610c155760008415610c03578287015190505b610c0d8582610b8f565b865550610c75565b601f198416610c23866109ff565b60005b82811015610c4b57848901518255600182019150602085019450602081019050610c26565b86831015610c685784890151610c64601f891682610b71565b8355505b6001600288020188555050505b505050505050565b7f4e487b7100000000000000000000000000000000000000000000000000000000600052603260045260246000fdfea264697066735822122044f878036aa4c07040dde4d4ed9c752c063202d8600f1812fe380871c75c017d64736f6c63430008130033",
  "immutableReferences": {},
  "source": "// SPDX-License-Identifier: MIT\r\npragma solidity = 0.8.19;\r\n\r\ncontract Survey {\r\n    //   \r\n    // , , , , \r\n    // mapping      . \r\n    // mapping key \"()\"   , , \r\n    //     \r\n\r\n    //  \r\n    // , ,  3    . \r\n    struct survey_info {\r\n        string gender;\r\n        uint8 age;\r\n        string coffee;\r\n    }\r\n    // mapping   \r\n    //      mapping\r\n    mapping (string => survey_info) internal survey;\r\n\r\n    //    \r\n    //   (  )\r\n    struct surveys {\r\n        string name;\r\n        string gender;\r\n        uint8 age;\r\n        string coffee;\r\n    }\r\n\r\n    //   ()\r\n    //         \r\n    surveys[] internal survey_list;\r\n\r\n    //    \r\n    function check_survey(string memory _user) public view returns (bool){\r\n        //     ?\r\n        // mapping         \r\n        if (survey[_user].age == 0){    \r\n            //     0  \r\n            // 0     \r\n            return false;\r\n        }else{\r\n            return true;\r\n        }\r\n    } \r\n\r\n    //    \r\n    function add_survey(string memory _user, string memory _gender, uint8 _age, string memory _coffee) public {\r\n        //   mapping   \r\n        survey[_user].gender = _gender;\r\n        survey[_user].age = _age;\r\n        survey[_user].coffee = _coffee;\r\n        //     \r\n        survey_list.push(surveys(_user, _gender, _age, _coffee));\r\n    }\r\n\r\n    //    \r\n    function count_list() public view returns (uint256){\r\n        uint256 result = survey_list.length;\r\n        return result;\r\n    }\r\n\r\n    //    \r\n    function get_survey(uint256 _index) public view returns (string memory, string memory, uint8, string memory){\r\n        string memory name = survey_list[_index].name;\r\n        string memory gender = survey_list[_index].gender;\r\n        uint8 age = survey_list[_index].age;\r\n        string memory coffee = survey_list[_index].coffee;\r\n\r\n        return (name, gender, age, coffee);\r\n    }\r\n\r\n}",
  "sourcePath": "C:\\Users\\moons\\Documents\\GitHub\\blockchain\\contract_server\\contracts\\Survey.sol",
  "compiler": {
    "name": "solc",
    "version": "0.8.19+commit.7dd6d404.Emscripten.clang"
  },
  "schemaVersion": "3.4.13",
  "updatedAt": "2023-04-03T12:01:39.641Z",
  "networkType": "ethereum",
  "devdoc": {
    "kind": "dev",
    "methods": {},
    "version": 1
  },
  "userdoc": {
    "kind": "user",
    "methods": {},
    "version": 1
  }
}