{
  "contractName": "VendingMachine",
  "abi": [
    {
      "inputs": [],
      "stateMutability": "nonpayable",
      "type": "constructor"
    },
    {
      "inputs": [
        {
          "internalType": "address",
          "name": "",
          "type": "address"
        }
      ],
      "name": "breadBalances",
      "outputs": [
        {
          "internalType": "uint256",
          "name": "",
          "type": "uint256"
        }
      ],
      "stateMutability": "view",
      "type": "function",
      "constant": true
    },
    {
      "inputs": [],
      "name": "owner",
      "outputs": [
        {
          "internalType": "address",
          "name": "",
          "type": "address"
        }
      ],
      "stateMutability": "view",
      "type": "function",
      "constant": true
    },
    {
      "inputs": [],
      "name": "getVendingMachineBalnace",
      "outputs": [
        {
          "internalType": "uint256",
          "name": "",
          "type": "uint256"
        }
      ],
      "stateMutability": "view",
      "type": "function",
      "constant": true
    },
    {
      "inputs": [
        {
          "internalType": "uint256",
          "name": "_amount",
          "type": "uint256"
        }
      ],
      "name": "purchase",
      "outputs": [],
      "stateMutability": "nonpayable",
      "type": "function"
    },
    {
      "inputs": [
        {
          "internalType": "uint256",
          "name": "_amount",
          "type": "uint256"
        }
      ],
      "name": "restock",
      "outputs": [],
      "stateMutability": "nonpayable",
      "type": "function"
    }
  ],
  "bytecode": "0x608060405234801561001057600080fd5b50336000806101000a81548173ffffffffffffffffffffffffffffffffffffffff021916908373ffffffffffffffffffffffffffffffffffffffff1602179055506064600160003073ffffffffffffffffffffffffffffffffffffffff1673ffffffffffffffffffffffffffffffffffffffff168152602001908152602001600020819055506106ba806100a56000396000f3fe608060405234801561001057600080fd5b50600436106100575760003560e01c80636ca054551461005c5780638da5cb5b1461007a578063c21a702a14610098578063df905483146100b4578063efef39a1146100e4575b600080fd5b610064610100565b60405161007191906103b4565b60405180910390f35b610082610147565b60405161008f9190610410565b60405180910390f35b6100b260048036038101906100ad919061045c565b61016b565b005b6100ce60048036038101906100c991906104b5565b610252565b6040516100db91906103b4565b60405180910390f35b6100fe60048036038101906100f9919061045c565b61026a565b005b6000600160003073ffffffffffffffffffffffffffffffffffffffff1673ffffffffffffffffffffffffffffffffffffffff16815260200190815260200160002054905090565b60008054906101000a900473ffffffffffffffffffffffffffffffffffffffff1681565b3373ffffffffffffffffffffffffffffffffffffffff1660008054906101000a900473ffffffffffffffffffffffffffffffffffffffff1673ffffffffffffffffffffffffffffffffffffffff16146101f9576040517f08c379a00000000000000000000000000000000000000000000000000000000081526004016101f09061053f565b60405180910390fd5b80600160003073ffffffffffffffffffffffffffffffffffffffff1673ffffffffffffffffffffffffffffffffffffffff1681526020019081526020016000206000828254610248919061058e565b9250508190555050565b60016020528060005260406000206000915090505481565b80600160003073ffffffffffffffffffffffffffffffffffffffff1673ffffffffffffffffffffffffffffffffffffffff1681526020019081526020016000205410156102ec576040517f08c379a00000000000000000000000000000000000000000000000000000000081526004016102e390610630565b60405180910390fd5b80600160003073ffffffffffffffffffffffffffffffffffffffff1673ffffffffffffffffffffffffffffffffffffffff168152602001908152602001600020600082825461033b9190610650565b9250508190555080600160003373ffffffffffffffffffffffffffffffffffffffff1673ffffffffffffffffffffffffffffffffffffffff1681526020019081526020016000206000828254610391919061058e565b9250508190555050565b6000819050919050565b6103ae8161039b565b82525050565b60006020820190506103c960008301846103a5565b92915050565b600073ffffffffffffffffffffffffffffffffffffffff82169050919050565b60006103fa826103cf565b9050919050565b61040a816103ef565b82525050565b60006020820190506104256000830184610401565b92915050565b600080fd5b6104398161039b565b811461044457600080fd5b50565b60008135905061045681610430565b92915050565b6000602082840312156104725761047161042b565b5b600061048084828501610447565b91505092915050565b610492816103ef565b811461049d57600080fd5b50565b6000813590506104af81610489565b92915050565b6000602082840312156104cb576104ca61042b565b5b60006104d9848285016104a0565b91505092915050565b600082825260208201905092915050565b7f4f6e6c7920746865206f776e65722063616e20726573746f636b000000000000600082015250565b6000610529601a836104e2565b9150610534826104f3565b602082019050919050565b600060208201905081810360008301526105588161051c565b9050919050565b7f4e487b7100000000000000000000000000000000000000000000000000000000600052601160045260246000fd5b60006105998261039b565b91506105a48361039b565b9250827fffffffffffffffffffffffffffffffffffffffffffffffffffffffffffffffff038211156105d9576105d861055f565b5b828201905092915050565b7f4e6f7420656e6f75676820627265616400000000000000000000000000000000600082015250565b600061061a6010836104e2565b9150610625826105e4565b602082019050919050565b600060208201905081810360008301526106498161060d565b9050919050565b600061065b8261039b565b91506106668361039b565b9250828210156106795761067861055f565b5b82820390509291505056fea2646970667358221220117bc01786c771d58613aae56c9a3f20cd9cacc9fcb34b69a180afd7a7b098c964736f6c634300080f0033",
  "immutableReferences": {},
  "source": "// SPDX-License-Identifier: GPL-3.0\r\npragma solidity >=0.5.0 <0.9.0;\r\n\r\n// contract  \r\ncontract VendingMachine{\r\n    //    \r\n    address public owner;\r\n\r\n    //    mapping  \r\n    mapping(address => uint) public breadBalances;\r\n\r\n    //       \r\n    constructor() {\r\n        // owner  . \r\n        owner = msg.sender;\r\n        //   100  \r\n        breadBalances[address(this)] = 100;\r\n        // address(this) -> this: , address(this) :   ( )\r\n    }\r\n\r\n    //    \r\n    function getVendingMachineBalnace() public view returns (uint) {\r\n        // mapping      value  .\r\n        return breadBalances[address(this)];\r\n    }\r\n\r\n    //      (      -> transaction )\r\n    function purchase(uint _amount) public {\r\n        //   ? ->       \r\n        require(breadBalances[address(this)] >= _amount, \"Not enough bread\");\r\n        //    address(this)    \r\n        //     \r\n        breadBalances[address(this)] -= _amount;\r\n        // breadBalances[address(this)] = breadBalances[address(this)] - _amount;\r\n        breadBalances[msg.sender] += _amount;\r\n    }\r\n\r\n    //     (    . -> transaction )\r\n    function restock(uint _amount) public {\r\n        //    ? -> owner     .\r\n        require(owner == msg.sender, \"Only the owner can restock\");\r\n        //     ? breadBalances[address(this)]  _amount \r\n        breadBalances[address(this)] += _amount;\r\n    }\r\n}",
  "sourcePath": "F:\\blockchain\\vendingmachine\\contracts\\VendingMachine.sol",
  "compiler": {
    "name": "solc",
    "version": "0.8.15+commit.e14f2714.Emscripten.clang"
  },
  "schemaVersion": "3.4.8",
  "updatedAt": "2023-03-27T12:10:48.826Z",
  "networkType": "ethereum",
  "devdoc": {
    "kind": "dev",
    "methods": {},
    "version": 1
  },
  "userdoc": {
    "kind": "user",
    "methods": {},
    "version": 1
  }
}